{
  "transactions": [
    {
      "hash": "0x0ee45423a315f2ed07092557d7364ce5e42dbff83d4cf4b72f10d1e46dec303d",
      "transactionType": "CALL",
      "contractName": null,
      "contractAddress": "0x9E80C66dA41c04e6125266CfD52D1F2b6AfC547d",
      "function": "createDeterministic((bytes,bytes))",
      "arguments": [
        "(0x010001, 0x8de33b2530d5d202724dc9a7ee86996e8a00adf91ca58debe6ef9381a083b6c7481e8526489e36f445df4ce2df0793116017fd017b009bfdb217eafb01d83d64fa4f695063f6d2eb9ca484e8ef2a562881bd94485b872860674ef02ca7547ee6939277c6eef5c39b66464622e4b2c039db6713b91533ffe48f004648e2a11d63f7e9e3c8952842a7c67f0ba0a112a1850980a233bc253b7477aea2e5961be3edbc8ff130ce12391cbc4c479fe6798bffbb154ec8b90369ecdf41145fedd5fde2f75878d8aaf8a9e7c1e49be5e52f191cebc85eda7f0630623e25892dd3dd96079ee15f9327cf4df96fd7253e62d2ca9456b0a22878a05415a3a8449f99072ce5)"
      ],
      "transaction": {
        "type": "0x02",
        "from": "0xbea76df6afcca5e729b839c0a258df8f359ac64c",
        "to": "0x9e80c66da41c04e6125266cfd52d1f2b6afc547d",
        "gas": "0x6899f",
        "value": "0x0",
        "data": "0x5d24297e0000000000000000000000000000000000000000000000000000000000000020000000000000000000000000000000000000000000000000000000000000004000000000000000000000000000000000000000000000000000000000000000800000000000000000000000000000000000000000000000000000000000000003010001000000000000000000000000000000000000000000000000000000000000000000000000000000000000000000000000000000000000000000000001008de33b2530d5d202724dc9a7ee86996e8a00adf91ca58debe6ef9381a083b6c7481e8526489e36f445df4ce2df0793116017fd017b009bfdb217eafb01d83d64fa4f695063f6d2eb9ca484e8ef2a562881bd94485b872860674ef02ca7547ee6939277c6eef5c39b66464622e4b2c039db6713b91533ffe48f004648e2a11d63f7e9e3c8952842a7c67f0ba0a112a1850980a233bc253b7477aea2e5961be3edbc8ff130ce12391cbc4c479fe6798bffbb154ec8b90369ecdf41145fedd5fde2f75878d8aaf8a9e7c1e49be5e52f191cebc85eda7f0630623e25892dd3dd96079ee15f9327cf4df96fd7253e62d2ca9456b0a22878a05415a3a8449f99072ce5",
        "nonce": "0x6",
        "accessList": []
      },
      "additionalContracts": [
        {
          "transactionType": "CREATE2",
          "address": "0x1B4Eb1Fb4C0fBC4a82998AF3FeE577aBEf5B09fB",
          "initCode": "0x3d602d80600a3d3981f3363d3d373d3d3d363d734b212d5646f0be5d9eb1fa78deadc35b2746cad55af43d82803e903d91602b57fd5bf3"
        }
      ],
      "isFixedGasLimit": false
    }
  ],
  "receipts": [
    {
      "transactionHash": "0x0ee45423a315f2ed07092557d7364ce5e42dbff83d4cf4b72f10d1e46dec303d",
      "transactionIndex": "0x3",
      "blockHash": "0xc5fb445c88214c2a1003ef1e1434cbec5fe48eafed1ac678aeba5a7a8832d462",
      "blockNumber": "0x24bec76",
      "from": "0xbEA76Df6AFccA5E729b839c0A258Df8f359ac64c",
      "to": "0x9E80C66dA41c04e6125266CfD52D1F2b6AfC547d",
      "cumulativeGasUsed": "0x72946",
      "gasUsed": "0x4ed60",
      "contractAddress": null,
      "logs": [
        {
          "address": "0x1B4Eb1Fb4C0fBC4a82998AF3FeE577aBEf5B09fB",
          "topics": [
            "0xc7f505b2f371ae2175ee4913f4499e1f2633a7b5936321eed1cdaeb6115181d2"
          ],
          "data": "0x0000000000000000000000000000000000000000000000000000000000000001",
          "blockHash": "0xc5fb445c88214c2a1003ef1e1434cbec5fe48eafed1ac678aeba5a7a8832d462",
          "blockNumber": "0x24bec76",
          "transactionHash": "0x0ee45423a315f2ed07092557d7364ce5e42dbff83d4cf4b72f10d1e46dec303d",
          "transactionIndex": "0x3",
          "logIndex": "0x2",
          "removed": false
        },
        {
          "address": "0x9E80C66dA41c04e6125266CfD52D1F2b6AfC547d",
          "topics": [
            "0xa908d537697a6fe8b02e8102cd20b68071a741fcabf7a3fd0ee036b5a0bd0924",
            "0x6401fff5eee9ea10edf7302b8751890b3db68beb62852858bb15fadfb00e85b8"
          ],
          "data": "0x0000000000000000000000001b4eb1fb4c0fbc4a82998af3fee577abef5b09fb",
          "blockHash": "0xc5fb445c88214c2a1003ef1e1434cbec5fe48eafed1ac678aeba5a7a8832d462",
          "blockNumber": "0x24bec76",
          "transactionHash": "0x0ee45423a315f2ed07092557d7364ce5e42dbff83d4cf4b72f10d1e46dec303d",
          "transactionIndex": "0x3",
          "logIndex": "0x3",
          "removed": false
        }
      ],
      "status": "0x1",
      "logsBloom": "0x00000400000000000000000000000000000000000000000000000000000000000000000000000000002000000000000000000000000000000000000000000008000000000000000000400000000000000000000000000000400000000000000000000000000000000000000010000000000000000000000000000000000010000000000000000000000800000010000000000000000080001000000000000008000000040000000000000000000000000000000000000000000000000000000000000000000000000000000000000000000000000004000000000000000000000000000000000000000000000000020000000000000000000000000000000000",
      "type": "0x2",
      "effectiveGasPrice": "0x34b9ecc0"
    }
  ],
  "libraries": [],
  "pending": [],
  "returns": {},
  "timestamp": 1714335436,
  "chain": 421614,
  "commit": "538d613"
}